:0C148E00C2A1C2A28C80D2A27F017E000D
:10149A00EF1FAA0670011E4A600BE4FDEDC39478A3
:0514AA0050EE0D80F77B
:0114AF00221A
:0B153700C2A0D2A1121494AF80C2A287
:011542002286
:10150500AC07121537EF20E7F9C2A012148EC2A25C
:0115150022B3
:10151600AC07121537EF20E7F9D2A012148EC2A23B
:0115260022A2
:10146A007F381215051214967F011215051214966B
:10147A007F061215051214967F0C1215057F017E40
:04148A000002149AAE
:0A135A008F3E8D3F8B408A4189428F
:10136400E4F543E53F7008E53E4480FF121505E5CA
:101374003FB40108E53E44C0FF121505E4F543AB54
:1013840040AA41A942854382758300120D18FF12B9
:0B13940015160543E543C3941040E428
:01139F00222B
:0814F200010814010914C1896D
:1014C700EF1FAA0670011E4A600BE4FDEDC3947876
:0514D70050EE0D80F74E
:0114DC0022ED
:10141300E4FFE590F46028E4FDFC0DBD00010CED54
:10142300640A4C70F5E590F46015AF90E590F460B4
:0F1433000EE4FCFD0DBD00010CED640A4C70F5DC
:011442002287
:1013A000EF2409603324FC602B24FE601414702E9B
:1013B0000508E508D3945F400375085F8508098038
:1013C0001D1508E508D394015003750801E50814BC
:1013D000F509800AB2098006E4F509750801AF092C
:0113E00022EA
:1013E100AC07300913C2A6D2A57E001214C7C2A54C
:1013F100ECFFC3745F9F8011C2A5D2A6ECFF7E00F3
:101401001214C7C2A6C3745F9CFFE49400FE1214B9
:02141100C722F0
:091543001214131213A00213E1AB
:1014DD0073706565643A25352E32662020202020F4
:0514ED0020202020007A
:0A14FA00043A000000000238000070
:1015270012146A1214B0D2A47590FF12154380FBEF
:1014B000758941758C3C758AB0E4F58DF58BD28CBD
:0714C000D28ED2A9D2AF22A7
:03000B0002120AD4
:10120A00C0E0C0F0C083C082C0D075D000C000C0AA
:10121A0001C002C003C004C005C006C007758C3CEB
:10122A00758AB00539E53970020538641445387095
:10123A0076AF8DEF75F020A4AEF0AD8B7C002DF566
:10124A0037EC3EF536FCAD37E41209AB7BA47A7075
:10125A0079B77841120909E4FBFA797078421208E1
:10126A00001209E4AD07AC06EC1209AB8F258E24F7
:10127A008D238C227541FF7542147543DD8F478E8D
:10128A00468D458C447B007A007926120DF77B0047
:10129A007A0079267D01E4FF12135A7538007539F0
:1012AA0000758D00758B00C28DD007D006D005D091
:1012BA0004D003D002D001D000D0D0D082D083D0C5
:0412CA00F0D0E0324E
:10080000EC4D6011E8497017ED33EC3304600DE4F2
:10081000FCFFFEFD22E933E8330470F8020A5012AF
:100820000A1B58046009E4CC2481500628500902B0
:100830000A5A284003020A57C0E0EB4A7044B980C4
:1008400006D0E0FB020A46EF4E701CBD8008EBFFAD
:10085000EAFEE9FD80EBE98DF0A4FEE5F00208E98F
:10086000E9CDF9EAFEEBFFEF89F0A4FCE5F0CE89D3
:10087000F0A42EFFE435F0CD89F0A42DFEE435F090
:100880008067EF4E7005BD80D780C3EF8BF0A4ACBE
:10089000F0EE8BF0A42CFCE435F0F8EF8AF0A42CF9
:1008A000E5F038FCE433CB8DF0A42CFCE5F03BF80C
:1008B000EE8AF0A42CFCE5F038F8E433CF89F0A4FC
:1008C0002CFCE5F038CF3400CE89F0A42FFFE5F002
:1008D0003EFEE433C98DF0A42EFEE5F039CD8AF05A
:1008E000A42FFFE5F03EFEE43DFD33D0E0FB5007D2
:1008F0000BBB000F020A5AEC2CFCEF33FFEE33FE69
:06090000ED33FD020A3296
:10090600020A5AEC5D046005E859047003020A50B5
:10091600120A1B580460F6EC4860F2EC7004FDFE07
:10092600FF22C860DB2481C85009C39860025006C4
:10093600020A579850CAF582E9294B4A7005AB82DC
:10094600020A4675F0007C1A7880C3EF9BEE9AED9A
:1009560099400DC3EF9BFFEE9AFEED99FDE842F03C
:10096600DC23ACF0D0E0FFD0E0FED0E0FDAB82208F
:10097600E7101BEB60BAEC2CFCEF33FFEE33FEED19
:1009860033FD020A32E803F830E705C0F075F000DF
:10099600EF2FFFEE33FEED33FD40B830E7C280AAFD
:1009A60075F020800E75F010800575F0087D007ECC
:1009B600007F003392D530D503120D57EC3340102B
:1009C600EF33FFEE33FEED33FDEC33FCD5F0ED22D5
:0E09D600E5F0247EA2D513CC92E7CDCEFF2211
:1009E400EDD2E7CD33EC3392D524814006E4FFFE0B
:1009F400FDFC22FCE4CFCECDCC24E0501174FF806A
:100A0400EDC3CC13CCCD13CDCE13CECF13CF047006
:070A1400F030D5DE020D57A2
:100D9B00E5552441F8E6055522783E3007027841A7
:100DAB00E475F001120D65020CFF2000EB7F2ED2D3
:100DBB00008018EF540F2490D43440D4FF30040B30
:100DCB00EF24BFB41A0050032461FFE556600215EF
:100DDB00560559E5597002055830070D783EE475F4
:100DEB00F001120D65EF020D450214437403D20797
:100DFB008003E4C207F5558B3E8A3F8940E4F556E4
:100E0B00F558F559E55660077F20120DD680F5751C
:100E1B0057FFC201C200C202C203C205C206C2080A
:100E2B00120DA4FF700D3007057F00120DE7AF59AF
:100E3B00AE5822B4255FC2D5C204120DA4FF24D034
:100E4B00B40A00501A75F00A785630D50508B6FF6B
:100E5B000106C6A426F620D5047002D20380D9243D
:100E6B00CFB41A00EF5004C2E5D2040210D4D20161
:100E7B0080C6D20080C0D20280BCD2D580BAD20547
:100E8B0080B47F20120DD62002077401B5560040A6
:100E9B00F1120D9BFF120DD6020E0FD208D2068057
:100EAB0095120D9BFB120D9BFA120D9BF94A4B7081
:100EBB000679CB7A117BFF20022EE556602A7E0045
:100ECB008E82758300120D1860060EEE655770F05A
:100EDB00C2D5EBC0E0EAC0E0E9C0E0EE121134D0BD
:100EEB00E0F9D0E0FAD0E0FB120CFFFF60AAEBC0F8
:100EFB00E0EAC0E0E9C0E0120DD6D0E02401F9D061
:100F0B00E03400FAD0E0FBE5570460DCD557D9801C
:100F1B0087D20280A212111760F7E55770010412F5
:100F2B000A65A957600DE557600914F5571211BEF4
:100F3B00EF60F3EA30E702F404C3995077EAF42543
:100F4B00570430E701E404F557800D12111760C107
:100F5B00EA05572557120A65EA7854F630E701E49B
:100F6B00255704D5570420050114121134E4C0E0B1
:100F7B001211BE7854E6601320E70714F6120DBE6B
:100F8B00802204F6D0E014C0E07F00120DBEE557BE
:100F9B006007120DB51557800B300503120DB5D038
:100FAB00E0020E0FD0E00480C512111760A0E557C8
:100FBB0004120A657854EAF6E5572005026001042D
:050FCB002404121134A2
:100FD00074FF04C0E01211BE120DBEE557200502D9
:100FE0006003120DB5D0E0B557E87F45120DC87803
:100FF00054E67F2B30E7047F2DF404C0E0120DD6B9
:10100000D0E075F00A84C0F0120DBFD0E0120DBF21
:10101000020E0F791080027908C206C2088008D239
:10102000D5790A8004790AC2D5E557047002F557CC
:10103000E4FAFDFEFF120D9BFC7B08200113120D4C
:101040009BFD7B1030000A120D9BFE120D9BFF7B57
:1010500020EC3382D592D55013C3E43000069FFFB5
:10106000E49EFEE42001039DFDE49CFCE4CBF8C279
:1010700001EC700CCFCECDCCE824F8F870F38017DB
:10108000C3EF33FFEE33FEED33FDEC33FCEB33FB0C
:10109000994002FB0FD8E9EB300105F8D0E0C448D5
:1010A000B201C0E00AEC4D4E4F78207B0070C2EADE
:1010B000B5570040BCC0E0121136D0F0D0E020019E
:1010C00004C4C0E0C4B201C0F0120DBFD0F0D5F02E
:1010D000EB020E0F120D750EAC531013580E7D4C13
:1010E0000E794210174F101F44101F490E924310E3
:1010F00025550F56460FB4450F204711EB500E8172
:101100002D0E852E0EA82B0E89230EA62011D42A73
:101110000E414800000EA0E557B4FF0375570612B4
:101120000D9BFC120D9BFD120D9BFE120D9BFF787B
:101130004D020A94790AA2D5200314300509B9108A
:10114000020404B9080104A2D520060250010420BB
:1011500002689202B556005034C0E07F2030031977
:101160007F30A20272067205500F12118DC202C2A8
:1011700006C205C2087F30800F300503E9C0E012C7
:101180000DD6300503D0E0F9D0E0B556CC300517C8
:101190007F30B9100C120DD67F583004077F78804D
:1011A00003B90803120DD63002057F2D020DD67F3C
:1011B000202008F87F2B2006F322920280CF7F00A8
:1011C000B407005005244DF8E6FF22286E756C6CBC
:1011D0002900D201120D9B3001F8C201785630D59A
:1011E0000108F6020E412D50434958120D9B24036D
:1011F000B405004001E49011E693120DC7743A1251
:0A1200000DC7D20375560402101347
:100A1B00E9D2E7C933E833F892D5EDD2E7CD33EC21
:070A2B0033FC5002B2D5229A
:100A3200EC30E7100FBF000C0EBE00080DBD000425
:100A42000BEB6014A2D5EB13FCED92E7FD2274FFD1
:100A5200FCFDFEFF22E480F8A2D574FF13FC7D802A
:030A6200E480EF3E
:100A6500F920E72824F950037907E4F42402FB1858
:100A7500DBFDE624FB5014E9600DE4F618E604F608
:0F0A8500B40A08E4F6D9F57401F60A22C2D522A4
:100A9400ED33EC3392D5FA602AB4FF33EDC2E77B31
:100AA400FF60067A0A79B9E4227A0A79C220D50469
:100AB4007A0A79BD224E614E002B494E46002D49DB
:100AC4004E4600E47A08F608DAFC7B00740722E854
:100AD400C0E0ECC0E0EDC0E0EEC0E0EFC0E0EA75DD
:100AE400F010A4CAABF075F04DA42BFBE435F0FC78
:100AF400EA2410FAEB34C5FBEC34D9FCEDC2E7FF71
:100B040075F056A4F42411C5F0F434C58FF0A42A6A
:100B1400E5F03BE43CF620E714120CBFD0E0FFD034
:100B2400E0FED0E0FDD0E0FC1209098014F40412C8
:100B34000CBFD0E0FFD0E0FED0E0FDD0E0FC120816
:100B440000D0E0F8E6FAEDD2E7CD33EC332482FBB3
:100B5400E4C3CF33CFCE33CECD33CD33DBF37B07FA
:100B640075F00A846004F6081B0AE5F0F6088FF0B5
:100B7400740AA4FFACF08EF0740AA42CFEACF050FE
:100B8400010C8DF0740AA42CFDE435F0F608DBDECC
:030B9400740722C1
:100B9700020A50E86480F8E933E83360110460F032
:100BA700ED33EC337009E8FCE9FDEAFEEBFF2204C4
:100BB70060DED3EB9FEA9EE99DE8C2E78CF0C2F7BF
:100BC70095F0400CE8CCF8E9CDF9EACEFAEBCFFB8B
:100BD700120A1B85D0F05804700320D5B3E80470BF
:100BE700075002B2D5020A5A92D5EC0460F7E4CC5A
:100BF700C0E0C398F8603B94186008400DD0E0FB54
:100C0700020A32E4FBFAC9FC8028E830E406E4C9AA
:100C1700FBE4CAFCE830E305E4C9CACBFCE85407A7
:100C27006010F8C3E913F9EA13FAEB13FBEC13FCB2
:100C3700D8F130F52FC3E49CFCEF9BFFEE9AFEED55
:100C470099FDD0E0FBEF4E4D4C701222DB03020AF8
:100C570057EC2CFCEF33FFEE33FEED33FDED30E7C1
:100C6700EB020A32EF2BFFEE3AFEED39FDD0E0FB47
:100C770050130BBB0003020A5AED13FDEE13FEEFF0
:080C870013FFEC13FC020A321A
:100C8F003F8000004120000042C80000447A00006D
:100C9F00461C400047C35000497424004B189680EF
:100CAF004CBEBC205A0E1BCA6753C21C749DC5AEE6
:100CBF00FB60065407601C2323120CEDEB543860C5
:100CCF0009120CD9120CE8120800ECF8EDF9EEFA43
:100CDF00EFCB22EB120CE880F1543803241C900C5C
:100CEF008FFE93FC0EEE93FD0EEE930ECE93FF222E
:030000000212CE1B
:0C12CE00787FE4F6D8FD758159021315F5
:100CFF00BB010689828A83E0225002E722BBFE02F3
:090D0F00E32289828A83E4932225
:100D1800BB010CE58229F582E5833AF583E0225090
:100D280006E92582F8E622BBFE06E92582F8E222DA
:0D0D3800E58229F582E5833AF583E49322F4
:100D4500BB010689828A83F0225002F722BBFE018D
:020D5500F32287
:0E0D5700C3E49FFFE49EFEE49DFDE49CFC22AD
:100D6500FAE6FB0808E6F925F0F618E6CA3AF6228F
:100D7500D083D082F8E4937012740193700DA3A30D
:100D850093F8740193F5828883E473740293686021
:060D9500EFA3A3A380DF21
:10144300EFB40A07740D12144E740A309811A89958
:10145300B8130CC2983098FDA899C298B811F63009
:0714630099FDC299F59922E1
:1012DA00021527E493A3F8E493A34003F68001F2EE
:1012EA0008DFF48029E493A3F85407240CC8C33315
:1012FA00C4540F4420C8834004F456800146F6DFE4
:10130A00E4800B01020408102040809014F2E47E6D
:10131A00019360BCA3FF543F30E509541FFEE493D8
:10132A00A360010ECF54C025E060A840B8E493A39F
:10133A00FAE493A3F8E493A3C8C582C8CAC583CACA
:10134A00F0A3C8C582C8CAC583CADFE9DEE780BE82
:0115040000E6
:00000001FF
